S02B0000433A5C55736572735C38343934315C446F63756D656E74735C4D43555870726573736F4944455F31DE
S113A00000600020D5A0000043A1000045A100008D
S113A010000000000000000000000000000000003C
S113A02000000000000000000000000047A1000044
S113A030000000000000000049A100004BA1000046
S113A0404FA1000057A100005FA1000067A100001C
S113A0506FA1000077A100007FA1000087A100008C
S113A0608FA1000097A100009FA10000A7A10000FC
S113A070AFA10000B7A10000BFA10000C7A100006C
S113A080CFA10000D7A10000DFA10000E7A10000DC
S113A090EFA10000F7A10000FFA1000007A200004B
S113A0A00FA2000017A200001FA2000027A20000B8
S113A0B02FA2000037A200003FA2000047A2000028
S113A0C044AA000080E0FF1F0000000080E0FF1FA2
S113A0D0B800000010B572B600F0D8F90D4B07E0D7
S113A0E0186859681C000C349A6800F019F82300A9
S113A0F0094A9342F4D306E018681C0008345968EE
S113A10000F017F82300054A9342F5D362B600F035
S113A11042FCFEE7C0A00000CCA00000D4A00000D8
S113A12010B5002302E010C810C104339342FAD3DF
S113A13010BD002302E0002204C004338B42FAD392
S113A1407047FEE7FEE7FEE7FEE7FEE7FEE710B531
S113A150FFF7FCFF10BD10B5FFF7F8FF10BD10B5F9
S113A160FFF7F4FF10BD10B5FFF7F0FF10BD10B5F9
S113A170FFF7ECFF10BD10B5FFF7E8FF10BD10B5F9
S113A180FFF7E4FF10BD10B5FFF7E0FF10BD10B5F9
S113A190FFF7DCFF10BD10B5FFF7D8FF10BD10B5F9
S113A1A0FFF7D4FF10BD10B5FFF7D0FF10BD10B5F9
S113A1B0FFF7CCFF10BD10B5FFF7C8FF10BD10B5F9
S113A1C0FFF7C4FF10BD10B5FFF7C0FF10BD10B5F9
S113A1D0FFF7BCFF10BD10B5FFF7B8FF10BD10B5F9
S113A1E0FFF7B4FF10BD10B5FFF7B0FF10BD10B5F9
S113A1F0FFF7ACFF10BD10B5FFF7A8FF10BD10B5F9
S113A200FFF7A4FF10BD10B5FFF7A0FF10BD10B5F8
S113A210FFF79CFF10BD10B5FFF798FF10BD10B5F8
S113A220FFF794FF10BD10B5FFF790FF10BD10B5F8
S113A230FFF78CFF10BD10B5FFF788FF10BD10B5F8
S113A240FFF784FF10BD10B5FFF780FF10BDFFFFBF
S113A250FFFFFFFFFFFFFFFFFFFFFFFFFFFFFFFF0A
S113A260FFFFFFFFFFFFFFFFFFFFFFFFFFFFFFFFFA
S113A270FFFFFFFFFFFFFFFFFFFFFFFFFFFFFFFFEA
S113A280FFFFFFFFFFFFFFFFFFFFFFFFFFFFFFFFDA
S113A290FFFFFFFFFFFFFFFFFFFFFFFFFFFFFFFFCA
S113A2A0FFFFFFFFFFFFFFFFFFFFFFFFFFFFFFFFBA
S113A2B0FFFFFFFFFFFFFFFFFFFFFFFFFFFFFFFFAA
S113A2C0FFFFFFFFFFFFFFFFFFFFFFFFFFFFFFFF9A
S113A2D0FFFFFFFFFFFFFFFFFFFFFFFFFFFFFFFF8A
S113A2E0FFFFFFFFFFFFFFFFFFFFFFFFFFFFFFFF7A
S113A2F0FFFFFFFFFFFFFFFFFFFFFFFFFFFFFFFF6A
S113A300FFFFFFFFFFFFFFFFFFFFFFFFFFFFFFFF59
S113A310FFFFFFFFFFFFFFFFFFFFFFFFFFFFFFFF49
S113A320FFFFFFFFFFFFFFFFFFFFFFFFFFFFFFFF39
S113A330FFFFFFFFFFFFFFFFFFFFFFFFFFFFFFFF29
S113A340FFFFFFFFFFFFFFFFFFFFFFFFFFFFFFFF19
S113A350FFFFFFFFFFFFFFFFFFFFFFFFFFFFFFFF09
S113A360FFFFFFFFFFFFFFFFFFFFFFFFFFFFFFFFF9
S113A370FFFFFFFFFFFFFFFFFFFFFFFFFFFFFFFFE9
S113A380FFFFFFFFFFFFFFFFFFFFFFFFFFFFFFFFD9
S113A390FFFFFFFFFFFFFFFFFFFFFFFFFFFFFFFFC9
S113A3A0FFFFFFFFFFFFFFFFFFFFFFFFFFFFFFFFB9
S113A3B0FFFFFFFFFFFFFFFFFFFFFFFFFFFFFFFFA9
S113A3C0FFFFFFFFFFFFFFFFFFFFFFFFFFFFFFFF99
S113A3D0FFFFFFFFFFFFFFFFFFFFFFFFFFFFFFFF89
S113A3E0FFFFFFFFFFFFFFFFFFFFFFFFFFFFFFFF79
S113A3F0FFFFFFFFFFFFFFFFFFFFFFFFFFFFFFFF69
S113A400FFFFFFFFFFFFFFFFFFFFFFFFFEFFFFFF59
S113A41080B500AF0F4A104BD3580E498022520129
S113A42013430D4A8B500D4B5A690C4B8021490044
S113A4300A435A610A4B5A69094B20210A435A615B
S113A440074B5A68064B20210A435A60C046BD4652
S113A45080BDC046007004403810000000C00440B5
S113A460C00000F880B500AFFFF7D2FF054BDA68F3
S113A470044B20210A43DA60034B180000F072FAFF
S113A480F4E7C046C0F00F4060E3160080B500AFAB
S113A490044A88235B010021D15000F077FAC046BA
S113A4A0BD4680BD0070044037B5184C18492200E1
S113A4B0002000F05DF8802380225B000021200052
S113A4C0D20000F02FF8134C134D22002900012074
S113A4D000F04EF8802380225B0000212000D2008F
S113A4E000F020F80D4B1B680193022B0DDD0C4C82
S113A4F029002200022000F03BF880238022002162
S113A50020005B00D20000F00DF837BD84E0FF1F8F
S113A51040AA0000C0E0FF1F42AA00003CAA0000BD
S113A520FCE0FF1FF0B5C56804000120AE070CD0A5
S113A53080208000824213D08020C000824205D057
S113A5408020400082420BD0FF38F0BD210001235F
S113A55024312A43002021612160E361E260F4E7B1
S113A560024F5E1E0120BE42F3D9EEE7FEFFFF005C
S113A570F7B50D0001901000140000F033F82B78AB
S113A580722B1CD0772B1DD0612B26D1144A593B3A
S113A5900220691C032784460426012508782B28F9
S113A5A013D0622816D0E260019A62611B0704D5B9
S113A5B002220021200000F065F82000FEBD0023E7
S113A5C00122E5E704230222E2E760463A4303431B
S113A5D00131E3E732432B43FAE70024EDE7C046B9
S113A5E002800000F0B5C568040089B0AB0722D032
S113A5F02B0718D44769066900F022F8380000F0E8
S113A60008FA2B0502D5300000F0D8F90B4BAD0D3C
S113A610AD059D4207D120226846216A00F008FA60
S113A620684600F0BEF93C220021200000F0C2F987
S113A630002009B0F0BD01204042FAE7000080ADDF
S113A64073B5002813D000F0E5F80500280076BDA6
S113A65030006043094BC01800F0DCF8002801D03A
S113A66001256D420134019BA342F1DCEEE7044B6A
S113A67004001B6805003C260193F4E784E0FF1FF7
S113A6803CAA0000F7B5394BC66804000D000092DF
S113A6901E4202D102273800FEBD4369180001930F
S113A6A000F0BDF9071EF5D1009B012B05D0022B4C
S113A6B02CD0002B05D00237EDE7200000F05AF82B
S113A6C02D18002DE6DBB30404D52368E26A9A4210
S113A6D000D2E362A169A9420EDCE26A23689342D4
S113A6E000D21300226958180092801AA84203DB92
S113A6F0206B0A18AA4228DC20231E430023A562EB
S113A700A36063601A4B1E40E660C4E7019800F042
S113A71083F9E268002804DA802313430127E36005
S113A720B9E7E16A2368994200D90B00A1695B1873
S113A73021695B1A920603D5A26A934200DA1300D8
S113A740834200DA0300ED18BBE76D1AB20701D5A6
S113A750281AA060F20703D5009A9B1AEB1A6360CB
S113A760009B5D19202325609E43CBE70300100066
S113A770BFCFF7FFC268930705D1212201200E4BFA
S113A78040421A6070472023134012030AD5002B5D
S113A79002D0806A0138F5E70368826900699B1872
S113A7A0181AF7E7002B01D0806AEBE70368826987
S113A7B000699B18181AE5E780E0FF1F032310B512
S113A7C0411C0200184217D1104C13681048181885
S113A7D09843204217D0DCB2501C002C11D0FF2427
S113A7E02402901C23420CD0FF2000040340581E76
S113A7F08341D318D81C04E00130421E1278002A89
S113A800DFD1401A10BD0432DFE7C046808080806B
S113A810FFFEFEFEC36870B503221E00040016404E
S113A820134211D09B0611D5856A00F07BF8E268CB
S113A830094B20001340E36000F010F800220600EA
S113A84029002000FFF71EFF300070BD03688269F5
S113A8509D180369ED1AEAE7FFCFFFFFC368154AA5
S113A86070B51A40C2608222040005690168C66A94
S113A8701A40022A02D00120404270BD80221800F2
S113A880520210401342F8D0B14200D231008D423E
S113A89008D10020E268084BE56213402560A060FF
S113A8A0E360EAE722002800491B00F007F80028CB
S113A8B0EFD0E0E7FFFFF7FFFFFFFEFFF7B5D56836
S113A8C00F00140056690190EB0205D510233000E7
S113A8D01D4300F0A1F8A061104B1D420FD03000C1
S113A8E0A16900F0A2F8002806DA80230120E268BA
S113A8F040421343E3600FE0094B1D40E5600199BA
S113A9003A00300000F097F84100A3694908791A29
S113A9105918A1610028E8D1FEBDC046100002000C
S113A920EFFFFDFF2023C26810B59A43C26083691C
S113A930826A040093420CD0FFF790FFE368074A51
S113A9401A4010231343E360A36AA3612369E362FB
S113A9502360E268024B1340E36010BDEFCFFFFFBA
S113A960BFBFFFFF80B584B000AF78600023FB60F9
S113A97003E0C046FB680133FB607B68FA689A42D7
S113A980F7D3C046C046BD4604B080BD80B500AF15
S113A990C046BD4680BD10B5FFF786FDFFF762FDDA
S113A9A010BD10B50400FFF709FF0100200000F0FE
S113A9B039F810BD10B500F017F810BD10B5002817
S113A9C011D080210C38490501608268002A0AD020
S113A9D013688B4207D14368546803331B194360DF
S113A9E093688360F1E710BD8446043A09D3830772
S113A9F007D109060B0A19430B0C1943043A02C088
S113AA00FCD2043203D001700130013AFBD160461C
S113AA1070470120404270470120404270470120A6
S113AA204042704701204042704701204042704735
S113AA3001204042704710007047FFFF03000000F0
S107AA407200770025
S903A0D587
